{
  "_format": "hh-sol-artifact-1",
  "contractName": "SenseiNFT",
  "sourceName": "contracts/SenseiNFT.sol",
  "abi": [
    {
      "inputs": [],
      "stateMutability": "nonpayable",
      "type": "constructor"
    },
    {
      "anonymous": false,
      "inputs": [
        {
          "indexed": true,
          "internalType": "address",
          "name": "owner",
          "type": "address"
        },
        {
          "indexed": true,
          "internalType": "address",
          "name": "approved",
          "type": "address"
        },
        {
          "indexed": true,
          "internalType": "uint256",
          "name": "tokenId",
          "type": "uint256"
        }
      ],
      "name": "Approval",
      "type": "event"
    },
    {
      "anonymous": false,
      "inputs": [
        {
          "indexed": true,
          "internalType": "address",
          "name": "owner",
          "type": "address"
        },
        {
          "indexed": true,
          "internalType": "address",
          "name": "operator",
          "type": "address"
        },
        {
          "indexed": false,
          "internalType": "bool",
          "name": "approved",
          "type": "bool"
        }
      ],
      "name": "ApprovalForAll",
      "type": "event"
    },
    {
      "anonymous": false,
      "inputs": [
        {
          "indexed": false,
          "internalType": "address",
          "name": "sender",
          "type": "address"
        },
        {
          "indexed": false,
          "internalType": "uint256",
          "name": "tokenId",
          "type": "uint256"
        }
      ],
      "name": "NewSenseiNFTMinted",
      "type": "event"
    },
    {
      "anonymous": false,
      "inputs": [
        {
          "indexed": false,
          "internalType": "uint256",
          "name": "totalNfts",
          "type": "uint256"
        }
      ],
      "name": "TotalNFTMinted",
      "type": "event"
    },
    {
      "anonymous": false,
      "inputs": [
        {
          "indexed": true,
          "internalType": "address",
          "name": "from",
          "type": "address"
        },
        {
          "indexed": true,
          "internalType": "address",
          "name": "to",
          "type": "address"
        },
        {
          "indexed": true,
          "internalType": "uint256",
          "name": "tokenId",
          "type": "uint256"
        }
      ],
      "name": "Transfer",
      "type": "event"
    },
    {
      "inputs": [
        {
          "internalType": "address",
          "name": "to",
          "type": "address"
        },
        {
          "internalType": "uint256",
          "name": "tokenId",
          "type": "uint256"
        }
      ],
      "name": "approve",
      "outputs": [],
      "stateMutability": "nonpayable",
      "type": "function"
    },
    {
      "inputs": [
        {
          "internalType": "address",
          "name": "owner",
          "type": "address"
        }
      ],
      "name": "balanceOf",
      "outputs": [
        {
          "internalType": "uint256",
          "name": "",
          "type": "uint256"
        }
      ],
      "stateMutability": "view",
      "type": "function"
    },
    {
      "inputs": [
        {
          "internalType": "uint256",
          "name": "tokenId",
          "type": "uint256"
        }
      ],
      "name": "getApproved",
      "outputs": [
        {
          "internalType": "address",
          "name": "",
          "type": "address"
        }
      ],
      "stateMutability": "view",
      "type": "function"
    },
    {
      "inputs": [],
      "name": "getTotalNFTS",
      "outputs": [
        {
          "internalType": "uint256",
          "name": "",
          "type": "uint256"
        }
      ],
      "stateMutability": "view",
      "type": "function"
    },
    {
      "inputs": [
        {
          "internalType": "address",
          "name": "owner",
          "type": "address"
        },
        {
          "internalType": "address",
          "name": "operator",
          "type": "address"
        }
      ],
      "name": "isApprovedForAll",
      "outputs": [
        {
          "internalType": "bool",
          "name": "",
          "type": "bool"
        }
      ],
      "stateMutability": "view",
      "type": "function"
    },
    {
      "inputs": [],
      "name": "makeSenseiNFT",
      "outputs": [],
      "stateMutability": "nonpayable",
      "type": "function"
    },
    {
      "inputs": [],
      "name": "name",
      "outputs": [
        {
          "internalType": "string",
          "name": "",
          "type": "string"
        }
      ],
      "stateMutability": "view",
      "type": "function"
    },
    {
      "inputs": [
        {
          "internalType": "uint256",
          "name": "tokenId",
          "type": "uint256"
        }
      ],
      "name": "ownerOf",
      "outputs": [
        {
          "internalType": "address",
          "name": "",
          "type": "address"
        }
      ],
      "stateMutability": "view",
      "type": "function"
    },
    {
      "inputs": [
        {
          "internalType": "uint256",
          "name": "tokenId",
          "type": "uint256"
        }
      ],
      "name": "pickRandFirstWord",
      "outputs": [
        {
          "internalType": "string",
          "name": "",
          "type": "string"
        }
      ],
      "stateMutability": "view",
      "type": "function"
    },
    {
      "inputs": [
        {
          "internalType": "uint256",
          "name": "tokenId",
          "type": "uint256"
        }
      ],
      "name": "pickRandSecondWord",
      "outputs": [
        {
          "internalType": "string",
          "name": "",
          "type": "string"
        }
      ],
      "stateMutability": "view",
      "type": "function"
    },
    {
      "inputs": [
        {
          "internalType": "uint256",
          "name": "tokenId",
          "type": "uint256"
        }
      ],
      "name": "pickRandThirdWord",
      "outputs": [
        {
          "internalType": "string",
          "name": "",
          "type": "string"
        }
      ],
      "stateMutability": "view",
      "type": "function"
    },
    {
      "inputs": [
        {
          "internalType": "uint256",
          "name": "tokenId",
          "type": "uint256"
        }
      ],
      "name": "pickRandomColor",
      "outputs": [
        {
          "internalType": "string",
          "name": "",
          "type": "string"
        }
      ],
      "stateMutability": "view",
      "type": "function"
    },
    {
      "inputs": [
        {
          "internalType": "address",
          "name": "from",
          "type": "address"
        },
        {
          "internalType": "address",
          "name": "to",
          "type": "address"
        },
        {
          "internalType": "uint256",
          "name": "tokenId",
          "type": "uint256"
        }
      ],
      "name": "safeTransferFrom",
      "outputs": [],
      "stateMutability": "nonpayable",
      "type": "function"
    },
    {
      "inputs": [
        {
          "internalType": "address",
          "name": "from",
          "type": "address"
        },
        {
          "internalType": "address",
          "name": "to",
          "type": "address"
        },
        {
          "internalType": "uint256",
          "name": "tokenId",
          "type": "uint256"
        },
        {
          "internalType": "bytes",
          "name": "_data",
          "type": "bytes"
        }
      ],
      "name": "safeTransferFrom",
      "outputs": [],
      "stateMutability": "nonpayable",
      "type": "function"
    },
    {
      "inputs": [
        {
          "internalType": "address",
          "name": "operator",
          "type": "address"
        },
        {
          "internalType": "bool",
          "name": "approved",
          "type": "bool"
        }
      ],
      "name": "setApprovalForAll",
      "outputs": [],
      "stateMutability": "nonpayable",
      "type": "function"
    },
    {
      "inputs": [
        {
          "internalType": "bytes4",
          "name": "interfaceId",
          "type": "bytes4"
        }
      ],
      "name": "supportsInterface",
      "outputs": [
        {
          "internalType": "bool",
          "name": "",
          "type": "bool"
        }
      ],
      "stateMutability": "view",
      "type": "function"
    },
    {
      "inputs": [],
      "name": "symbol",
      "outputs": [
        {
          "internalType": "string",
          "name": "",
          "type": "string"
        }
      ],
      "stateMutability": "view",
      "type": "function"
    },
    {
      "inputs": [
        {
          "internalType": "uint256",
          "name": "tokenId",
          "type": "uint256"
        }
      ],
      "name": "tokenURI",
      "outputs": [
        {
          "internalType": "string",
          "name": "",
          "type": "string"
        }
      ],
      "stateMutability": "view",
      "type": "function"
    },
    {
      "inputs": [
        {
          "internalType": "address",
          "name": "from",
          "type": "address"
        },
        {
          "internalType": "address",
          "name": "to",
          "type": "address"
        },
        {
          "internalType": "uint256",
          "name": "tokenId",
          "type": "uint256"
        }
      ],
      "name": "transferFrom",
      "outputs": [],
      "stateMutability": "nonpayable",
      "type": "function"
    }
  ],
  "bytecode": "0x60806040526200001b600762000c1360201b6200145a1760201c565b60085560405180610100016040528060d3815260200162004d0860d39139600990805190602001906200005092919062000ced565b5060405180608001604052806056815260200162004ddb60569139600a90805190602001906200008292919062000ced565b5060405180610160016040528061012f815260200162004bd961012f9139600b9080519060200190620000b792919062000ced565b506040518061018001604052806040518060400160405280600481526020017f41726d790000000000000000000000000000000000000000000000000000000081525081526020016040518060400160405280600c81526020017f5369676e69666963616e6365000000000000000000000000000000000000000081525081526020016040518060400160405280600681526020017f477569746172000000000000000000000000000000000000000000000000000081525081526020016040518060400160405280600b81526020017f5072657061726174696f6e00000000000000000000000000000000000000000081525081526020016040518060400160405280600681526020017f447261776572000000000000000000000000000000000000000000000000000081525081526020016040518060400160405280600881526020017f466f6f7462616c6c00000000000000000000000000000000000000000000000081525081526020016040518060400160405280600381526020017f576179000000000000000000000000000000000000000000000000000000000081525081526020016040518060400160405280600981526020017f53656c656374696f6e000000000000000000000000000000000000000000000081525081526020016040518060400160405280600781526020017f537572676572790000000000000000000000000000000000000000000000000081525081526020016040518060400160405280600381526020017f4d6f6d000000000000000000000000000000000000000000000000000000000081525081526020016040518060400160405280600581526020017f536b696c6c00000000000000000000000000000000000000000000000000000081525081526020016040518060400160405280600381526020017f4861740000000000000000000000000000000000000000000000000000000000815250815250600c90600c6200039892919062000d7e565b506040518061018001604052806040518060400160405280600681526020017f4d656d6f7279000000000000000000000000000000000000000000000000000081525081526020016040518060400160405280600781526020017f4172726976616c0000000000000000000000000000000000000000000000000081525081526020016040518060400160405280600681526020017f436f7573696e000000000000000000000000000000000000000000000000000081525081526020016040518060400160405280600881526020017f50726f706f73616c00000000000000000000000000000000000000000000000081525081526020016040518060400160405280600481526020017f536f6e670000000000000000000000000000000000000000000000000000000081525081526020016040518060400160405280600781526020017f4d65616e696e670000000000000000000000000000000000000000000000000081525081526020016040518060400160405280600981526020017f50726f6d6f74696f6e000000000000000000000000000000000000000000000081525081526020016040518060400160405280600681526020017f546f6e677565000000000000000000000000000000000000000000000000000081525081526020016040518060400160405280600581526020017f506f77657200000000000000000000000000000000000000000000000000000081525081526020016040518060400160405280600b81526020017f5265706c6163656d656e7400000000000000000000000000000000000000000081525081526020016040518060400160405280600781526020017f536f63696574790000000000000000000000000000000000000000000000000081525081526020016040518060400160405280600981526020017f43616e6469646174650000000000000000000000000000000000000000000000815250815250600d90600c6200067992919062000d7e565b506040518061018001604052806040518060400160405280600881526020017f426972746864617900000000000000000000000000000000000000000000000081525081526020016040518060400160405280600481526020017f47656e650000000000000000000000000000000000000000000000000000000081525081526020016040518060400160405280600a81526020017f446566696e6974696f6e0000000000000000000000000000000000000000000081525081526020016040518060400160405280600981526020017f4368656d6973747279000000000000000000000000000000000000000000000081525081526020016040518060400160405280600581526020017f477565737400000000000000000000000000000000000000000000000000000081525081526020016040518060400160405280600781526020017f416972706f72740000000000000000000000000000000000000000000000000081525081526020016040518060400160405280600881526020017f42617468726f6f6d00000000000000000000000000000000000000000000000081525081526020016040518060400160405280600781526020017f537065616b65720000000000000000000000000000000000000000000000000081525081526020016040518060400160405280600681526020017f536572696573000000000000000000000000000000000000000000000000000081525081526020016040518060400160405280600b81526020017f446576656c6f706d656e7400000000000000000000000000000000000000000081525081526020016040518060400160405280600a81526020017f466f756e646174696f6e0000000000000000000000000000000000000000000081525081526020016040518060400160405280600a81526020017f456e746875736961736d00000000000000000000000000000000000000000000815250815250600e90600c6200095a92919062000d7e565b506040518060e001604052806040518060400160405280600781526020017f233764303232350000000000000000000000000000000000000000000000000081525081526020016040518060400160405280600781526020017f233038433241380000000000000000000000000000000000000000000000000081525081526020016040518060400160405280600781526020017f236530626362380000000000000000000000000000000000000000000000000081525081526020016040518060400160405280600681526020017f79656c6c6f77000000000000000000000000000000000000000000000000000081525081526020016040518060400160405280600781526020017f233434393866660000000000000000000000000000000000000000000000000081525081526020016040518060400160405280600781526020017f233164656537380000000000000000000000000000000000000000000000000081525081526020016040518060400160405280600781526020017f2362313763653000000000000000000000000000000000000000000000000000815250815250600f90600762000b1392919062000de5565b5034801562000b2157600080fd5b506040518060400160405280600981526020017f53656e7365694e465400000000000000000000000000000000000000000000008152506040518060400160405280600681526020017f53454e5345490000000000000000000000000000000000000000000000000000815250816000908051906020019062000ba692919062000ced565b50806001908051906020019062000bbf92919062000ced565b50505062000c0d6040518060400160405280601e81526020017f53656e7365694e465420436f6e747261637420696e697469616c697a6564000081525062000c2160201b620014681760201c565b62001006565b600081600001549050919050565b62000cc18160405160240162000c38919062000f1a565b6040516020818303038152906040527f41304fac000000000000000000000000000000000000000000000000000000007bffffffffffffffffffffffffffffffffffffffffffffffffffffffff19166020820180517bffffffffffffffffffffffffffffffffffffffffffffffffffffffff838183161783525050505062000cc460201b60201c565b50565b60008151905060006a636f6e736f6c652e6c6f679050602083016000808483855afa5050505050565b82805462000cfb9062000f90565b90600052602060002090601f01602090048101928262000d1f576000855562000d6b565b82601f1062000d3a57805160ff191683800117855562000d6b565b8280016001018555821562000d6b579182015b8281111562000d6a57825182559160200191906001019062000d4d565b5b50905062000d7a919062000e4c565b5090565b82805482825590600052602060002090810192821562000dd2579160200282015b8281111562000dd157825182908051906020019062000dc092919062000ced565b509160200191906001019062000d9f565b5b50905062000de1919062000e6b565b5090565b82805482825590600052602060002090810192821562000e39579160200282015b8281111562000e3857825182908051906020019062000e2792919062000ced565b509160200191906001019062000e06565b5b50905062000e48919062000e6b565b5090565b5b8082111562000e6757600081600090555060010162000e4d565b5090565b5b8082111562000e8f576000818162000e85919062000e93565b5060010162000e6c565b5090565b50805462000ea19062000f90565b6000825580601f1062000eb5575062000ed6565b601f01602090049060005260206000209081019062000ed5919062000e4c565b5b50565b600062000ee68262000f3e565b62000ef2818562000f49565b935062000f0481856020860162000f5a565b62000f0f8162000ff5565b840191505092915050565b6000602082019050818103600083015262000f36818462000ed9565b905092915050565b600081519050919050565b600082825260208201905092915050565b60005b8381101562000f7a57808201518184015260208101905062000f5d565b8381111562000f8a576000848401525b50505050565b6000600282049050600182168062000fa957607f821691505b6020821081141562000fc05762000fbf62000fc6565b5b50919050565b7f4e487b7100000000000000000000000000000000000000000000000000000000600052602260045260246000fd5b6000601f19601f8301169050919050565b613bc380620010166000396000f3fe608060405234801561001057600080fd5b50600436106101215760003560e01c8063514dc8c6116100ad578063b88d4fde11610071578063b88d4fde1461032c578063ba6136c714610348578063c87b56dd14610366578063e3eec66c14610396578063e985e9c5146103c657610121565b8063514dc8c6146102625780636352211e1461029257806370a08231146102c257806395d89b41146102f2578063a22cb4651461031057610121565b8063095ea7b3116100f4578063095ea7b3146101ae5780630c36d0e8146101ca5780630cda6089146101fa57806323b872dd1461022a57806342842e0e1461024657610121565b806301333f251461012657806301ffc9a71461013057806306fdde0314610160578063081812fc1461017e575b600080fd5b61012e6103f6565b005b61014a600480360381019061014591906126ed565b610682565b6040516101579190613417565b60405180910390f35b610168610764565b6040516101759190613432565b60405180910390f35b6101986004803603810190610193919061273f565b6107f6565b6040516101a59190613387565b60405180910390f35b6101c860048036038101906101c391906126b1565b61087b565b005b6101e460048036038101906101df919061273f565b610993565b6040516101f19190613432565b60405180910390f35b610214600480360381019061020f919061273f565b610ab1565b6040516102219190613432565b60405180910390f35b610244600480360381019061023f91906125ab565b610bcf565b005b610260600480360381019061025b91906125ab565b610c2f565b005b61027c6004803603810190610277919061273f565b610c4f565b6040516102899190613432565b60405180910390f35b6102ac60048036038101906102a7919061273f565b610d6d565b6040516102b99190613387565b60405180910390f35b6102dc60048036038101906102d79190612546565b610e1f565b6040516102e991906136b2565b60405180910390f35b6102fa610ed7565b6040516103079190613432565b60405180910390f35b61032a60048036038101906103259190612675565b610f69565b005b610346600480360381019061034191906125fa565b6110ea565b005b61035061114c565b60405161035d91906136b2565b60405180910390f35b610380600480360381019061037b919061273f565b611156565b60405161038d9190613432565b60405180910390f35b6103b060048036038101906103ab919061273f565b6112a8565b6040516103bd9190613432565b60405180910390f35b6103e060048036038101906103db919061256f565b6113c6565b6040516103ed9190613417565b60405180910390f35b6000610402600761145a565b90506001816104119190613786565b6008819055506032600854111561045d576040517f08c379a000000000000000000000000000000000000000000000000000000000815260040161045490613492565b60405180910390fd5b600061046882610993565b90506000610475836112a8565b9050600061048284610ab1565b9050600083838360405160200161049b9392919061321e565b604051602081830303815290604052905060006104b786610c4f565b90506000600982600a856040516020016104d4949392919061324f565b60405160208183030381529060405290506000610519846104f484611501565b6040516020016105059291906132dc565b604051602081830303815290604052611501565b905060008160405160200161052e9190613343565b604051602081830303815290604052905061057d6040518060400160405280600d81526020017f0a2d2d2d2d2d2d2d2d2d2d2d2d00000000000000000000000000000000000000815250611468565b61058681611468565b6105c46040518060400160405280600d81526020017f2d2d2d2d2d2d2d2d2d2d2d2d0a00000000000000000000000000000000000000815250611468565b6105ce338a6116bf565b6105d889826116dd565b6105e26007611751565b610605604051806060016040528060278152602001613b67602791398a33611767565b7f6b93e37151f4a8e8aabd7dabad36ac705feb0f2488327e5d26b9ccf5929cf981338a6040516106369291906133ee565b60405180910390a17f4d60d67edf2555b90fe1606a6e54626e922b37625b62bbb9f33ff4a887b26cb060085460405161066f91906136b2565b60405180910390a1505050505050505050565b60007f80ac58cd000000000000000000000000000000000000000000000000000000007bffffffffffffffffffffffffffffffffffffffffffffffffffffffff1916827bffffffffffffffffffffffffffffffffffffffffffffffffffffffff1916148061074d57507f5b5e139f000000000000000000000000000000000000000000000000000000007bffffffffffffffffffffffffffffffffffffffffffffffffffffffff1916827bffffffffffffffffffffffffffffffffffffffffffffffffffffffff1916145b8061075d575061075c82611806565b5b9050919050565b60606000805461077390613951565b80601f016020809104026020016040519081016040528092919081815260200182805461079f90613951565b80156107ec5780601f106107c1576101008083540402835291602001916107ec565b820191906000526020600020905b8154815290600101906020018083116107cf57829003601f168201915b5050505050905090565b600061080182611870565b610840576040517f08c379a000000000000000000000000000000000000000000000000000000000815260040161083790613612565b60405180910390fd5b6004600083815260200190815260200160002060009054906101000a900473ffffffffffffffffffffffffffffffffffffffff169050919050565b600061088682610d6d565b90508073ffffffffffffffffffffffffffffffffffffffff168373ffffffffffffffffffffffffffffffffffffffff1614156108f7576040517f08c379a00000000000000000000000000000000000000000000000000000000081526004016108ee90613672565b60405180910390fd5b8073ffffffffffffffffffffffffffffffffffffffff166109166118dc565b73ffffffffffffffffffffffffffffffffffffffff16148061094557506109448161093f6118dc565b6113c6565b5b610984576040517f08c379a000000000000000000000000000000000000000000000000000000000815260040161097b90613552565b60405180910390fd5b61098e83836118e4565b505050565b606060006109c76109a38461199d565b6040516020016109b39190613321565b604051602081830303815290604052611b4a565b9050600c80549050816109da91906139cc565b9050600c8181548110610a16577f4e487b7100000000000000000000000000000000000000000000000000000000600052603260045260246000fd5b906000526020600020018054610a2b90613951565b80601f0160208091040260200160405190810160405280929190818152602001828054610a5790613951565b8015610aa45780601f10610a7957610100808354040283529160200191610aa4565b820191906000526020600020905b815481529060010190602001808311610a8757829003601f168201915b5050505050915050919050565b60606000610ae5610ac18461199d565b604051602001610ad19190613298565b604051602081830303815290604052611b4a565b9050600e8054905081610af891906139cc565b9050600e8181548110610b34577f4e487b7100000000000000000000000000000000000000000000000000000000600052603260045260246000fd5b906000526020600020018054610b4990613951565b80601f0160208091040260200160405190810160405280929190818152602001828054610b7590613951565b8015610bc25780601f10610b9757610100808354040283529160200191610bc2565b820191906000526020600020905b815481529060010190602001808311610ba557829003601f168201915b5050505050915050919050565b610be0610bda6118dc565b82611b7d565b610c1f576040517f08c379a0000000000000000000000000000000000000000000000000000000008152600401610c1690613692565b60405180910390fd5b610c2a838383611c5b565b505050565b610c4a838383604051806020016040528060008152506110ea565b505050565b60606000610c83610c5f8461199d565b604051602001610c6f9190613365565b604051602081830303815290604052611b4a565b9050600f8054905081610c9691906139cc565b9050600f8181548110610cd2577f4e487b7100000000000000000000000000000000000000000000000000000000600052603260045260246000fd5b906000526020600020018054610ce790613951565b80601f0160208091040260200160405190810160405280929190818152602001828054610d1390613951565b8015610d605780601f10610d3557610100808354040283529160200191610d60565b820191906000526020600020905b815481529060010190602001808311610d4357829003601f168201915b5050505050915050919050565b6000806002600084815260200190815260200160002060009054906101000a900473ffffffffffffffffffffffffffffffffffffffff169050600073ffffffffffffffffffffffffffffffffffffffff168173ffffffffffffffffffffffffffffffffffffffff161415610e16576040517f08c379a0000000000000000000000000000000000000000000000000000000008152600401610e0d90613592565b60405180910390fd5b80915050919050565b60008073ffffffffffffffffffffffffffffffffffffffff168273ffffffffffffffffffffffffffffffffffffffff161415610e90576040517f08c379a0000000000000000000000000000000000000000000000000000000008152600401610e8790613572565b60405180910390fd5b600360008373ffffffffffffffffffffffffffffffffffffffff1673ffffffffffffffffffffffffffffffffffffffff168152602001908152602001600020549050919050565b606060018054610ee690613951565b80601f0160208091040260200160405190810160405280929190818152602001828054610f1290613951565b8015610f5f5780601f10610f3457610100808354040283529160200191610f5f565b820191906000526020600020905b815481529060010190602001808311610f4257829003601f168201915b5050505050905090565b610f716118dc565b73ffffffffffffffffffffffffffffffffffffffff168273ffffffffffffffffffffffffffffffffffffffff161415610fdf576040517f08c379a0000000000000000000000000000000000000000000000000000000008152600401610fd690613512565b60405180910390fd5b8060056000610fec6118dc565b73ffffffffffffffffffffffffffffffffffffffff1673ffffffffffffffffffffffffffffffffffffffff16815260200190815260200160002060008473ffffffffffffffffffffffffffffffffffffffff1673ffffffffffffffffffffffffffffffffffffffff16815260200190815260200160002060006101000a81548160ff0219169083151502179055508173ffffffffffffffffffffffffffffffffffffffff166110996118dc565b73ffffffffffffffffffffffffffffffffffffffff167f17307eab39ab6107e8899845ad3d59bd9653f200f220920489ca2b5937696c31836040516110de9190613417565b60405180910390a35050565b6110fb6110f56118dc565b83611b7d565b61113a576040517f08c379a000000000000000000000000000000000000000000000000000000000815260040161113190613692565b60405180910390fd5b61114684848484611eb7565b50505050565b6000600854905090565b606061116182611870565b6111a0576040517f08c379a0000000000000000000000000000000000000000000000000000000008152600401611197906135f2565b60405180910390fd5b60006006600084815260200190815260200160002080546111c090613951565b80601f01602080910402602001604051908101604052809291908181526020018280546111ec90613951565b80156112395780601f1061120e57610100808354040283529160200191611239565b820191906000526020600020905b81548152906001019060200180831161121c57829003601f168201915b50505050509050600061124a611f13565b90506000815114156112605781925050506112a3565b60008251111561129557808260405160200161127d9291906131fa565b604051602081830303815290604052925050506112a3565b61129e84611f2a565b925050505b919050565b606060006112dc6112b88461199d565b6040516020016112c891906132ba565b604051602081830303815290604052611b4a565b9050600d80549050816112ef91906139cc565b9050600d818154811061132b577f4e487b7100000000000000000000000000000000000000000000000000000000600052603260045260246000fd5b90600052602060002001805461134090613951565b80601f016020809104026020016040519081016040528092919081815260200182805461136c90613951565b80156113b95780601f1061138e576101008083540402835291602001916113b9565b820191906000526020600020905b81548152906001019060200180831161139c57829003601f168201915b5050505050915050919050565b6000600560008473ffffffffffffffffffffffffffffffffffffffff1673ffffffffffffffffffffffffffffffffffffffff16815260200190815260200160002060008373ffffffffffffffffffffffffffffffffffffffff1673ffffffffffffffffffffffffffffffffffffffff16815260200190815260200160002060009054906101000a900460ff16905092915050565b600081600001549050919050565b6114fe8160405160240161147c9190613432565b6040516020818303038152906040527f41304fac000000000000000000000000000000000000000000000000000000007bffffffffffffffffffffffffffffffffffffffffffffffffffffffff19166020820180517bffffffffffffffffffffffffffffffffffffffffffffffffffffffff8381831617835250505050611fd1565b50565b6060600082519050600081141561152a57604051806020016040528060008152509150506116ba565b6000600360028361153b9190613786565b61154591906137dc565b6004611551919061380d565b905060006020826115629190613786565b67ffffffffffffffff8111156115a1577f4e487b7100000000000000000000000000000000000000000000000000000000600052604160045260246000fd5b6040519080825280601f01601f1916602001820160405280156115d35781602001600182028036833780820191505090505b5090506000604051806060016040528060408152602001613b27604091399050600181016020830160005b868110156116775760038101905062ffffff818a015116603f8160121c168401518060081b905060ff603f83600c1c1686015116810190508060081b905060ff603f8360061c1686015116810190508060081b905060ff603f831686015116810190508060e01b905080845260048401935050506115fe565b50600386066001811461169157600281146116a1576116ac565b613d3d60f01b60028303526116ac565b603d60f81b60018303525b508484525050819450505050505b919050565b6116d9828260405180602001604052806000815250611ffa565b5050565b6116e682611870565b611725576040517f08c379a000000000000000000000000000000000000000000000000000000000815260040161171c906135b2565b60405180910390fd5b8060066000848152602001908152602001600020908051906020019061174c9291906123d2565b505050565b6001816000016000828254019250508190555050565b61180183838360405160240161177f93929190613454565b6040516020818303038152906040527fe3849f79000000000000000000000000000000000000000000000000000000007bffffffffffffffffffffffffffffffffffffffffffffffffffffffff19166020820180517bffffffffffffffffffffffffffffffffffffffffffffffffffffffff8381831617835250505050611fd1565b505050565b60007f01ffc9a7000000000000000000000000000000000000000000000000000000007bffffffffffffffffffffffffffffffffffffffffffffffffffffffff1916827bffffffffffffffffffffffffffffffffffffffffffffffffffffffff1916149050919050565b60008073ffffffffffffffffffffffffffffffffffffffff166002600084815260200190815260200160002060009054906101000a900473ffffffffffffffffffffffffffffffffffffffff1673ffffffffffffffffffffffffffffffffffffffff1614159050919050565b600033905090565b816004600083815260200190815260200160002060006101000a81548173ffffffffffffffffffffffffffffffffffffffff021916908373ffffffffffffffffffffffffffffffffffffffff160217905550808273ffffffffffffffffffffffffffffffffffffffff1661195783610d6d565b73ffffffffffffffffffffffffffffffffffffffff167f8c5be1e5ebec7d5bd14f71427d1e84f3dd0314c0f7b2291e5b200ac8c7c3b92560405160405180910390a45050565b606060008214156119e5576040518060400160405280600181526020017f30000000000000000000000000000000000000000000000000000000000000008152509050611b45565b600082905060005b60008214611a17578080611a0090613983565b915050600a82611a1091906137dc565b91506119ed565b60008167ffffffffffffffff811115611a59577f4e487b7100000000000000000000000000000000000000000000000000000000600052604160045260246000fd5b6040519080825280601f01601f191660200182016040528015611a8b5781602001600182028036833780820191505090505b5090505b60008514611b3e57600182611aa49190613867565b9150600a85611ab391906139cc565b6030611abf9190613786565b60f81b818381518110611afb577f4e487b7100000000000000000000000000000000000000000000000000000000600052603260045260246000fd5b60200101907effffffffffffffffffffffffffffffffffffffffffffffffffffffffffffff1916908160001a905350600a85611b3791906137dc565b9450611a8f565b8093505050505b919050565b600081604051602001611b5d91906131e3565b6040516020818303038152906040528051906020012060001c9050919050565b6000611b8882611870565b611bc7576040517f08c379a0000000000000000000000000000000000000000000000000000000008152600401611bbe90613532565b60405180910390fd5b6000611bd283610d6d565b90508073ffffffffffffffffffffffffffffffffffffffff168473ffffffffffffffffffffffffffffffffffffffff161480611c4157508373ffffffffffffffffffffffffffffffffffffffff16611c29846107f6565b73ffffffffffffffffffffffffffffffffffffffff16145b80611c525750611c5181856113c6565b5b91505092915050565b8273ffffffffffffffffffffffffffffffffffffffff16611c7b82610d6d565b73ffffffffffffffffffffffffffffffffffffffff1614611cd1576040517f08c379a0000000000000000000000000000000000000000000000000000000008152600401611cc890613632565b60405180910390fd5b600073ffffffffffffffffffffffffffffffffffffffff168273ffffffffffffffffffffffffffffffffffffffff161415611d41576040517f08c379a0000000000000000000000000000000000000000000000000000000008152600401611d38906134f2565b60405180910390fd5b611d4c838383612055565b611d576000826118e4565b6001600360008573ffffffffffffffffffffffffffffffffffffffff1673ffffffffffffffffffffffffffffffffffffffff1681526020019081526020016000206000828254611da79190613867565b925050819055506001600360008473ffffffffffffffffffffffffffffffffffffffff1673ffffffffffffffffffffffffffffffffffffffff1681526020019081526020016000206000828254611dfe9190613786565b92505081905550816002600083815260200190815260200160002060006101000a81548173ffffffffffffffffffffffffffffffffffffffff021916908373ffffffffffffffffffffffffffffffffffffffff160217905550808273ffffffffffffffffffffffffffffffffffffffff168473ffffffffffffffffffffffffffffffffffffffff167fddf252ad1be2c89b69c2b068fc378daa952ba7f163c4a11628f55a4df523b3ef60405160405180910390a4505050565b611ec2848484611c5b565b611ece8484848461205a565b611f0d576040517f08c379a0000000000000000000000000000000000000000000000000000000008152600401611f04906134b2565b60405180910390fd5b50505050565b606060405180602001604052806000815250905090565b6060611f3582611870565b611f74576040517f08c379a0000000000000000000000000000000000000000000000000000000008152600401611f6b90613652565b60405180910390fd5b6000611f7e611f13565b90506000815111611f9e5760405180602001604052806000815250611fc9565b80611fa88461199d565b604051602001611fb99291906131fa565b6040516020818303038152906040525b915050919050565b60008151905060006a636f6e736f6c652e6c6f679050602083016000808483855afa5050505050565b61200483836121f1565b612011600084848461205a565b612050576040517f08c379a0000000000000000000000000000000000000000000000000000000008152600401612047906134b2565b60405180910390fd5b505050565b505050565b600061207b8473ffffffffffffffffffffffffffffffffffffffff166123bf565b156121e4578373ffffffffffffffffffffffffffffffffffffffff1663150b7a026120a46118dc565b8786866040518563ffffffff1660e01b81526004016120c694939291906133a2565b602060405180830381600087803b1580156120e057600080fd5b505af192505050801561211157506040513d601f19601f8201168201806040525081019061210e9190612716565b60015b612194573d8060008114612141576040519150601f19603f3d011682016040523d82523d6000602084013e612146565b606091505b5060008151141561218c576040517f08c379a0000000000000000000000000000000000000000000000000000000008152600401612183906134b2565b60405180910390fd5b805181602001fd5b63150b7a0260e01b7bffffffffffffffffffffffffffffffffffffffffffffffffffffffff1916817bffffffffffffffffffffffffffffffffffffffffffffffffffffffff1916149150506121e9565b600190505b949350505050565b600073ffffffffffffffffffffffffffffffffffffffff168273ffffffffffffffffffffffffffffffffffffffff161415612261576040517f08c379a0000000000000000000000000000000000000000000000000000000008152600401612258906135d2565b60405180910390fd5b61226a81611870565b156122aa576040517f08c379a00000000000000000000000000000000000000000000000000000000081526004016122a1906134d2565b60405180910390fd5b6122b660008383612055565b6001600360008473ffffffffffffffffffffffffffffffffffffffff1673ffffffffffffffffffffffffffffffffffffffff16815260200190815260200160002060008282546123069190613786565b92505081905550816002600083815260200190815260200160002060006101000a81548173ffffffffffffffffffffffffffffffffffffffff021916908373ffffffffffffffffffffffffffffffffffffffff160217905550808273ffffffffffffffffffffffffffffffffffffffff16600073ffffffffffffffffffffffffffffffffffffffff167fddf252ad1be2c89b69c2b068fc378daa952ba7f163c4a11628f55a4df523b3ef60405160405180910390a45050565b600080823b905060008111915050919050565b8280546123de90613951565b90600052602060002090601f0160209004810192826124005760008555612447565b82601f1061241957805160ff1916838001178555612447565b82800160010185558215612447579182015b8281111561244657825182559160200191906001019061242b565b5b5090506124549190612458565b5090565b5b80821115612471576000816000905550600101612459565b5090565b6000612488612483846136fe565b6136cd565b9050828152602081018484840111156124a057600080fd5b6124ab84828561390f565b509392505050565b6000813590506124c281613aca565b92915050565b6000813590506124d781613ae1565b92915050565b6000813590506124ec81613af8565b92915050565b60008151905061250181613af8565b92915050565b600082601f83011261251857600080fd5b8135612528848260208601612475565b91505092915050565b60008135905061254081613b0f565b92915050565b60006020828403121561255857600080fd5b6000612566848285016124b3565b91505092915050565b6000806040838503121561258257600080fd5b6000612590858286016124b3565b92505060206125a1858286016124b3565b9150509250929050565b6000806000606084860312156125c057600080fd5b60006125ce868287016124b3565b93505060206125df868287016124b3565b92505060406125f086828701612531565b9150509250925092565b6000806000806080858703121561261057600080fd5b600061261e878288016124b3565b945050602061262f878288016124b3565b935050604061264087828801612531565b925050606085013567ffffffffffffffff81111561265d57600080fd5b61266987828801612507565b91505092959194509250565b6000806040838503121561268857600080fd5b6000612696858286016124b3565b92505060206126a7858286016124c8565b9150509250929050565b600080604083850312156126c457600080fd5b60006126d2858286016124b3565b92505060206126e385828601612531565b9150509250929050565b6000602082840312156126ff57600080fd5b600061270d848285016124dd565b91505092915050565b60006020828403121561272857600080fd5b6000612736848285016124f2565b91505092915050565b60006020828403121561275157600080fd5b600061275f84828501612531565b91505092915050565b6127718161389b565b82525050565b612780816138ad565b82525050565b600061279182613743565b61279b8185613759565b93506127ab81856020860161391e565b6127b481613ab9565b840191505092915050565b60006127ca8261374e565b6127d4818561376a565b93506127e481856020860161391e565b6127ed81613ab9565b840191505092915050565b60006128038261374e565b61280d818561377b565b935061281d81856020860161391e565b80840191505092915050565b6000815461283681613951565b612840818661377b565b9450600182166000811461285b576001811461286c5761289f565b60ff1983168652818601935061289f565b6128758561372e565b60005b8381101561289757815481890152600182019150602081019050612878565b838801955050505b50505092915050565b60006128b560548361376a565b91507f4d6178696d756d206e756d626572206f6620746f6b656e206d696e746564210a60008301527f506c65617365207761697420666f7220746865206e65787420636f6c6c65637460208301527f696f6e20746f20626520657868696269746564210000000000000000000000006040830152606082019050919050565b600061294160328361376a565b91507f4552433732313a207472616e7366657220746f206e6f6e20455243373231526560008301527f63656976657220696d706c656d656e74657200000000000000000000000000006020830152604082019050919050565b60006129a760658361377b565b91507f222c20226465736372697074696f6e223a20224120686967686c792076616c7560008301527f656420636f6c6c656374696f6e206f662053656e73656920776f7264732e222c60208301527f2022696d616765223a2022646174613a696d6167652f7376672b786d6c3b626160408301527f736536342c0000000000000000000000000000000000000000000000000000006060830152606582019050919050565b6000612a59601c8361376a565b91507f4552433732313a20746f6b656e20616c7265616479206d696e746564000000006000830152602082019050919050565b6000612a99600a8361377b565b91507f54484952445f574f5244000000000000000000000000000000000000000000006000830152600a82019050919050565b6000612ad960248361376a565b91507f4552433732313a207472616e7366657220746f20746865207a65726f2061646460008301527f72657373000000000000000000000000000000000000000000000000000000006020830152604082019050919050565b6000612b3f60198361376a565b91507f4552433732313a20617070726f766520746f2063616c6c6572000000000000006000830152602082019050919050565b6000612b7f600b8361377b565b91507f5345434f4e445f574f52440000000000000000000000000000000000000000006000830152600b82019050919050565b6000612bbf602c8361376a565b91507f4552433732313a206f70657261746f7220717565727920666f72206e6f6e657860008301527f697374656e7420746f6b656e00000000000000000000000000000000000000006020830152604082019050919050565b6000612c25600d8361377b565b91507f3c2f746578743e3c2f7376673e000000000000000000000000000000000000006000830152600d82019050919050565b6000612c6560388361376a565b91507f4552433732313a20617070726f76652063616c6c6572206973206e6f74206f7760008301527f6e6572206e6f7220617070726f76656420666f7220616c6c00000000000000006020830152604082019050919050565b6000612ccb602a8361376a565b91507f4552433732313a2062616c616e636520717565727920666f7220746865207a6560008301527f726f2061646472657373000000000000000000000000000000000000000000006020830152604082019050919050565b6000612d3160298361376a565b91507f4552433732313a206f776e657220717565727920666f72206e6f6e657869737460008301527f656e7420746f6b656e00000000000000000000000000000000000000000000006020830152604082019050919050565b6000612d97602e8361376a565b91507f45524337323155524953746f726167653a2055524920736574206f66206e6f6e60008301527f6578697374656e7420746f6b656e0000000000000000000000000000000000006020830152604082019050919050565b6000612dfd60028361377b565b91507f227d0000000000000000000000000000000000000000000000000000000000006000830152600282019050919050565b6000612e3d60208361376a565b91507f4552433732313a206d696e7420746f20746865207a65726f20616464726573736000830152602082019050919050565b6000612e7d60318361376a565b91507f45524337323155524953746f726167653a2055524920717565727920666f722060008301527f6e6f6e6578697374656e7420746f6b656e0000000000000000000000000000006020830152604082019050919050565b6000612ee3602c8361376a565b91507f4552433732313a20617070726f76656420717565727920666f72206e6f6e657860008301527f697374656e7420746f6b656e00000000000000000000000000000000000000006020830152604082019050919050565b6000612f4960298361376a565b91507f4552433732313a207472616e73666572206f6620746f6b656e2074686174206960008301527f73206e6f74206f776e00000000000000000000000000000000000000000000006020830152604082019050919050565b6000612faf602f8361376a565b91507f4552433732314d657461646174613a2055524920717565727920666f72206e6f60008301527f6e6578697374656e7420746f6b656e00000000000000000000000000000000006020830152604082019050919050565b6000613015600a8361377b565b91507f7b226e616d65223a2022000000000000000000000000000000000000000000006000830152600a82019050919050565b600061305560218361376a565b91507f4552433732313a20617070726f76616c20746f2063757272656e74206f776e6560008301527f72000000000000000000000000000000000000000000000000000000000000006020830152604082019050919050565b60006130bb600a8361377b565b91507f46495253545f574f5244000000000000000000000000000000000000000000006000830152600a82019050919050565b60006130fb601d8361377b565b91507f646174613a6170706c69636174696f6e2f6a736f6e3b6261736536342c0000006000830152601d82019050919050565b600061313b60318361376a565b91507f4552433732313a207472616e736665722063616c6c6572206973206e6f74206f60008301527f776e6572206e6f7220617070726f7665640000000000000000000000000000006020830152604082019050919050565b60006131a160058361377b565b91507f434f4c4f520000000000000000000000000000000000000000000000000000006000830152600582019050919050565b6131dd81613905565b82525050565b60006131ef82846127f8565b915081905092915050565b600061320682856127f8565b915061321282846127f8565b91508190509392505050565b600061322a82866127f8565b915061323682856127f8565b915061324282846127f8565b9150819050949350505050565b600061325b8287612829565b915061326782866127f8565b91506132738285612829565b915061327f82846127f8565b915061328a82612c18565b915081905095945050505050565b60006132a382612a8c565b91506132af82846127f8565b915081905092915050565b60006132c582612b72565b91506132d182846127f8565b915081905092915050565b60006132e782613008565b91506132f382856127f8565b91506132fe8261299a565b915061330a82846127f8565b915061331582612df0565b91508190509392505050565b600061332c826130ae565b915061333882846127f8565b915081905092915050565b600061334e826130ee565b915061335a82846127f8565b915081905092915050565b600061337082613194565b915061337c82846127f8565b915081905092915050565b600060208201905061339c6000830184612768565b92915050565b60006080820190506133b76000830187612768565b6133c46020830186612768565b6133d160408301856131d4565b81810360608301526133e38184612786565b905095945050505050565b60006040820190506134036000830185612768565b61341060208301846131d4565b9392505050565b600060208201905061342c6000830184612777565b92915050565b6000602082019050818103600083015261344c81846127bf565b905092915050565b6000606082019050818103600083015261346e81866127bf565b905061347d60208301856131d4565b61348a6040830184612768565b949350505050565b600060208201905081810360008301526134ab816128a8565b9050919050565b600060208201905081810360008301526134cb81612934565b9050919050565b600060208201905081810360008301526134eb81612a4c565b9050919050565b6000602082019050818103600083015261350b81612acc565b9050919050565b6000602082019050818103600083015261352b81612b32565b9050919050565b6000602082019050818103600083015261354b81612bb2565b9050919050565b6000602082019050818103600083015261356b81612c58565b9050919050565b6000602082019050818103600083015261358b81612cbe565b9050919050565b600060208201905081810360008301526135ab81612d24565b9050919050565b600060208201905081810360008301526135cb81612d8a565b9050919050565b600060208201905081810360008301526135eb81612e30565b9050919050565b6000602082019050818103600083015261360b81612e70565b9050919050565b6000602082019050818103600083015261362b81612ed6565b9050919050565b6000602082019050818103600083015261364b81612f3c565b9050919050565b6000602082019050818103600083015261366b81612fa2565b9050919050565b6000602082019050818103600083015261368b81613048565b9050919050565b600060208201905081810360008301526136ab8161312e565b9050919050565b60006020820190506136c760008301846131d4565b92915050565b6000604051905081810181811067ffffffffffffffff821117156136f4576136f3613a8a565b5b8060405250919050565b600067ffffffffffffffff82111561371957613718613a8a565b5b601f19601f8301169050602081019050919050565b60008190508160005260206000209050919050565b600081519050919050565b600081519050919050565b600082825260208201905092915050565b600082825260208201905092915050565b600081905092915050565b600061379182613905565b915061379c83613905565b9250827fffffffffffffffffffffffffffffffffffffffffffffffffffffffffffffffff038211156137d1576137d06139fd565b5b828201905092915050565b60006137e782613905565b91506137f283613905565b92508261380257613801613a2c565b5b828204905092915050565b600061381882613905565b915061382383613905565b9250817fffffffffffffffffffffffffffffffffffffffffffffffffffffffffffffffff048311821515161561385c5761385b6139fd565b5b828202905092915050565b600061387282613905565b915061387d83613905565b9250828210156138905761388f6139fd565b5b828203905092915050565b60006138a6826138e5565b9050919050565b60008115159050919050565b60007fffffffff0000000000000000000000000000000000000000000000000000000082169050919050565b600073ffffffffffffffffffffffffffffffffffffffff82169050919050565b6000819050919050565b82818337600083830152505050565b60005b8381101561393c578082015181840152602081019050613921565b8381111561394b576000848401525b50505050565b6000600282049050600182168061396957607f821691505b6020821081141561397d5761397c613a5b565b5b50919050565b600061398e82613905565b91507fffffffffffffffffffffffffffffffffffffffffffffffffffffffffffffffff8214156139c1576139c06139fd565b5b600182019050919050565b60006139d782613905565b91506139e283613905565b9250826139f2576139f1613a2c565b5b828206905092915050565b7f4e487b7100000000000000000000000000000000000000000000000000000000600052601160045260246000fd5b7f4e487b7100000000000000000000000000000000000000000000000000000000600052601260045260246000fd5b7f4e487b7100000000000000000000000000000000000000000000000000000000600052602260045260246000fd5b7f4e487b7100000000000000000000000000000000000000000000000000000000600052604160045260246000fd5b6000601f19601f8301169050919050565b613ad38161389b565b8114613ade57600080fd5b50565b613aea816138ad565b8114613af557600080fd5b50565b613b01816138b9565b8114613b0c57600080fd5b50565b613b1881613905565b8114613b2357600080fd5b5056fe4142434445464748494a4b4c4d4e4f505152535455565758595a6162636465666768696a6b6c6d6e6f707172737475767778797a303132333435363738392b2f416e204e4654207769746820494420257320686173206265656e206d696e74656420746f202573a2646970667358221220695b88286799629449343fb4614c436ba10cccf17c00ba4757b42b7607e3160f64736f6c634300080000333c73766720786d6c6e733d27687474703a2f2f7777772e77332e6f72672f323030302f73766727207072657365727665417370656374526174696f3d27784d696e594d696e206d656574272076696577426f783d273020302033353020333530273e3c7374796c653e2e62617365207b2066696c6c3a2077686974653b20666f6e742d66616d696c793a2073657269663b20666f6e742d73697a653a20323470783b207d3c2f7374796c653e3c726563742077696474683d273130302527206865696768743d2731303025272066696c6c3d27626c61636b27202f3e3c7465787420783d273530252720793d273530252720636c6173733d27626173652720646f6d696e616e742d626173656c696e653d276d6964646c652720746578742d616e63686f723d276d6964646c65273e3c73766720786d6c6e733d27687474703a2f2f7777772e77332e6f72672f323030302f73766727207072657365727665417370656374526174696f3d27784d696e594d696e206d656574272076696577426f783d273020302033353020333530273e3c7374796c653e2e62617365207b2066696c6c3a2077686974653b20666f6e742d66616d696c793a2073657269663b20666f6e742d73697a653a20323470783b207d3c2f7374796c653e3c726563742077696474683d273130302527206865696768743d2731303025272066696c6c3d27272f3e3c7465787420783d273530252720793d273530252720636c6173733d27626173652720646f6d696e616e742d626173656c696e653d276d6964646c652720746578742d616e63686f723d276d6964646c65273e",
  "linkReferences": {},
  "deployedLinkReferences": {}
}